{
    "_format": "hh-sol-artifact-1",
    "contractName": "WavePortal",
    "sourceName": "contracts/WavePortal.sol",
    "abi": [
        {
            "inputs": [],
            "stateMutability": "nonpayable",
            "type": "constructor"
        },
        {
            "anonymous": false,
            "inputs": [
                {
                    "indexed": false,
                    "internalType": "enum WavePortal.Reaction",
                    "name": "reaction",
                    "type": "uint8"
                },
                {
                    "indexed": false,
                    "internalType": "string",
                    "name": "message",
                    "type": "string"
                },
                {
                    "indexed": true,
                    "internalType": "address",
                    "name": "from",
                    "type": "address"
                },
                {
                    "indexed": false,
                    "internalType": "uint256",
                    "name": "timestamp",
                    "type": "uint256"
                }
            ],
            "name": "NewWave",
            "type": "event"
        },
        {
            "inputs": [],
            "name": "getAllWaves",
            "outputs": [
                {
                    "components": [
                        {
                            "internalType": "enum WavePortal.Reaction",
                            "name": "reaction",
                            "type": "uint8"
                        },
                        {
                            "internalType": "string",
                            "name": "message",
                            "type": "string"
                        },
                        {
                            "internalType": "address",
                            "name": "waver",
                            "type": "address"
                        },
                        {
                            "internalType": "uint256",
                            "name": "timestamp",
                            "type": "uint256"
                        }
                    ],
                    "internalType": "struct WavePortal.Wave[]",
                    "name": "",
                    "type": "tuple[]"
                }
            ],
            "stateMutability": "view",
            "type": "function"
        },
        {
            "inputs": [],
            "name": "getTotalWaves",
            "outputs": [
                {
                    "internalType": "uint256",
                    "name": "",
                    "type": "uint256"
                }
            ],
            "stateMutability": "view",
            "type": "function"
        },
        {
            "inputs": [
                {
                    "internalType": "address",
                    "name": "",
                    "type": "address"
                }
            ],
            "name": "lastWavedAt",
            "outputs": [
                {
                    "internalType": "uint256",
                    "name": "",
                    "type": "uint256"
                }
            ],
            "stateMutability": "view",
            "type": "function"
        },
        {
            "inputs": [
                {
                    "internalType": "enum WavePortal.Reaction",
                    "name": "_reaction",
                    "type": "uint8"
                },
                {
                    "internalType": "string",
                    "name": "_message",
                    "type": "string"
                }
            ],
            "name": "wave",
            "outputs": [],
            "stateMutability": "nonpayable",
            "type": "function"
        },
        {
            "inputs": [
                {
                    "internalType": "uint256",
                    "name": "",
                    "type": "uint256"
                }
            ],
            "name": "waveList",
            "outputs": [
                {
                    "internalType": "enum WavePortal.Reaction",
                    "name": "reaction",
                    "type": "uint8"
                },
                {
                    "internalType": "string",
                    "name": "message",
                    "type": "string"
                },
                {
                    "internalType": "address",
                    "name": "waver",
                    "type": "address"
                },
                {
                    "internalType": "uint256",
                    "name": "timestamp",
                    "type": "uint256"
                }
            ],
            "stateMutability": "view",
            "type": "function"
        }
    ],
    "bytecode": "0x608060405234801561001057600080fd5b50610f17806100206000396000f3fe608060405234801561001057600080fd5b50600436106100575760003560e01c806348c29f141461005c5780638b9c3ecd146100785780639a2cdc08146100ab578063a42a4663146100c9578063bd43a908146100f9575b600080fd5b6100766004803603810190610071919061081c565b610117565b005b610092600480360381019061008d9190610870565b6103b7565b6040516100a29493929190610a96565b60405180910390f35b6100b36104ac565b6040516100c09190610b40565b60405180910390f35b6100e360048036038101906100de91906107f3565b6104b9565b6040516100f09190610b40565b60405180910390f35b6101016104d1565b60405161010e9190610a74565b60405180910390f35b42601e600260003373ffffffffffffffffffffffffffffffffffffffff1673ffffffffffffffffffffffffffffffffffffffff168152602001908152602001600020546101649190610c17565b106101a4576040517f08c379a000000000000000000000000000000000000000000000000000000000815260040161019b90610b20565b60405180910390fd5b42600260003373ffffffffffffffffffffffffffffffffffffffff1673ffffffffffffffffffffffffffffffffffffffff1681526020019081526020016000208190555060016000808282546101fa9190610c17565b9250508190555060016040518060800160405280846002811115610247577f4e487b7100000000000000000000000000000000000000000000000000000000600052602160045260246000fd5b81526020018381526020013373ffffffffffffffffffffffffffffffffffffffff16815260200142815250908060018154018082558091505060019003906000526020600020906004020160009091909190915060008201518160000160006101000a81548160ff021916908360028111156102ec577f4e487b7100000000000000000000000000000000000000000000000000000000600052602160045260246000fd5b0217905550602082015181600101908051906020019061030d9291906106a9565b5060408201518160020160006101000a81548173ffffffffffffffffffffffffffffffffffffffff021916908373ffffffffffffffffffffffffffffffffffffffff1602179055506060820151816003015550503373ffffffffffffffffffffffffffffffffffffffff167f2d6873fdbcd96c625e1fafa3267b0aab6e37f9be7d7a32baf9f6875c5e2984448383426040516103ab93929190610ae2565b60405180910390a25050565b600181815481106103c757600080fd5b90600052602060002090600402016000915090508060000160009054906101000a900460ff16908060010180546103fd90610d10565b80601f016020809104026020016040519081016040528092919081815260200182805461042990610d10565b80156104765780601f1061044b57610100808354040283529160200191610476565b820191906000526020600020905b81548152906001019060200180831161045957829003601f168201915b5050505050908060020160009054906101000a900473ffffffffffffffffffffffffffffffffffffffff16908060030154905084565b6000600180549050905090565b60026020528060005260406000206000915090505481565b60606001805480602002602001604051908101604052809291908181526020016000905b828210156106a057838290600052602060002090600402016040518060800160405290816000820160009054906101000a900460ff166002811115610563577f4e487b7100000000000000000000000000000000000000000000000000000000600052602160045260246000fd5b600281111561059b577f4e487b7100000000000000000000000000000000000000000000000000000000600052602160045260246000fd5b81526020016001820180546105af90610d10565b80601f01602080910402602001604051908101604052809291908181526020018280546105db90610d10565b80156106285780601f106105fd57610100808354040283529160200191610628565b820191906000526020600020905b81548152906001019060200180831161060b57829003601f168201915b505050505081526020016002820160009054906101000a900473ffffffffffffffffffffffffffffffffffffffff1673ffffffffffffffffffffffffffffffffffffffff1673ffffffffffffffffffffffffffffffffffffffff168152602001600382015481525050815260200190600101906104f5565b50505050905090565b8280546106b590610d10565b90600052602060002090601f0160209004810192826106d7576000855561071e565b82601f106106f057805160ff191683800117855561071e565b8280016001018555821561071e579182015b8281111561071d578251825591602001919060010190610702565b5b50905061072b919061072f565b5090565b5b80821115610748576000816000905550600101610730565b5090565b600061075f61075a84610b80565b610b5b565b90508281526020810184848401111561077757600080fd5b610782848285610cce565b509392505050565b60008135905061079981610ea3565b92915050565b6000813590506107ae81610eba565b92915050565b600082601f8301126107c557600080fd5b81356107d584826020860161074c565b91505092915050565b6000813590506107ed81610eca565b92915050565b60006020828403121561080557600080fd5b60006108138482850161078a565b91505092915050565b6000806040838503121561082f57600080fd5b600061083d8582860161079f565b925050602083013567ffffffffffffffff81111561085a57600080fd5b610866858286016107b4565b9150509250929050565b60006020828403121561088257600080fd5b6000610890848285016107de565b91505092915050565b60006108a583836109f3565b905092915050565b6108b681610c6d565b82525050565b6108c581610c6d565b82525050565b60006108d682610bc1565b6108e08185610be4565b9350836020820285016108f285610bb1565b8060005b8581101561092e578484038952815161090f8582610899565b945061091a83610bd7565b925060208a019950506001810190506108f6565b50829750879550505050505092915050565b61094981610cbc565b82525050565b61095881610cbc565b82525050565b600061096982610bcc565b6109738185610bf5565b9350610983818560208601610cdd565b61098c81610e2f565b840191505092915050565b60006109a282610bcc565b6109ac8185610c06565b93506109bc818560208601610cdd565b6109c581610e2f565b840191505092915050565b60006109dd602583610c06565b91506109e882610e40565b604082019050919050565b6000608083016000830151610a0b6000860182610940565b5060208301518482036020860152610a23828261095e565b9150506040830151610a3860408601826108ad565b506060830151610a4b6060860182610a56565b508091505092915050565b610a5f81610cb2565b82525050565b610a6e81610cb2565b82525050565b60006020820190508181036000830152610a8e81846108cb565b905092915050565b6000608082019050610aab600083018761094f565b8181036020830152610abd8186610997565b9050610acc60408301856108bc565b610ad96060830184610a65565b95945050505050565b6000606082019050610af7600083018661094f565b8181036020830152610b098185610997565b9050610b186040830184610a65565b949350505050565b60006020820190508181036000830152610b39816109d0565b9050919050565b6000602082019050610b556000830184610a65565b92915050565b6000610b65610b76565b9050610b718282610d42565b919050565b6000604051905090565b600067ffffffffffffffff821115610b9b57610b9a610e00565b5b610ba482610e2f565b9050602081019050919050565b6000819050602082019050919050565b600081519050919050565b600081519050919050565b6000602082019050919050565b600082825260208201905092915050565b600082825260208201905092915050565b600082825260208201905092915050565b6000610c2282610cb2565b9150610c2d83610cb2565b9250827fffffffffffffffffffffffffffffffffffffffffffffffffffffffffffffffff03821115610c6257610c61610d73565b5b828201905092915050565b6000610c7882610c92565b9050919050565b6000819050610c8d82610e8f565b919050565b600073ffffffffffffffffffffffffffffffffffffffff82169050919050565b6000819050919050565b6000610cc782610c7f565b9050919050565b82818337600083830152505050565b60005b83811015610cfb578082015181840152602081019050610ce0565b83811115610d0a576000848401525b50505050565b60006002820490506001821680610d2857607f821691505b60208210811415610d3c57610d3b610dd1565b5b50919050565b610d4b82610e2f565b810181811067ffffffffffffffff82111715610d6a57610d69610e00565b5b80604052505050565b7f4e487b7100000000000000000000000000000000000000000000000000000000600052601160045260246000fd5b7f4e487b7100000000000000000000000000000000000000000000000000000000600052602160045260246000fd5b7f4e487b7100000000000000000000000000000000000000000000000000000000600052602260045260246000fd5b7f4e487b7100000000000000000000000000000000000000000000000000000000600052604160045260246000fd5b6000601f19601f8301169050919050565b7f57616974203330207365636f6e647320746f2073656e6420616e6f746865722060008201527f776176652e000000000000000000000000000000000000000000000000000000602082015250565b60038110610ea057610e9f610da2565b5b50565b610eac81610c6d565b8114610eb757600080fd5b50565b60038110610ec757600080fd5b50565b610ed381610cb2565b8114610ede57600080fd5b5056fea2646970667358221220cf9beed99e3e7776feeab3b15f89285ff067aa0188c8a99ea38db3360f11545364736f6c63430008010033",
    "linkReferences": {},
    "deployedLinkReferences": {}
}